{
  "contractName": "BuyTicket",
  "abi": [
    {
      "constant": true,
      "inputs": [],
      "name": "platform",
      "outputs": [
        {
          "name": "",
          "type": "address"
        }
      ],
      "payable": false,
      "stateMutability": "view",
      "type": "function",
      "signature": "0x4bde38c8"
    },
    {
      "inputs": [],
      "payable": false,
      "stateMutability": "nonpayable",
      "type": "constructor",
      "signature": "constructor"
    },
    {
      "constant": false,
      "inputs": [
        {
          "name": "_amount",
          "type": "uint256"
        }
      ],
      "name": "buyTicket",
      "outputs": [],
      "payable": true,
      "stateMutability": "payable",
      "type": "function",
      "signature": "0x67dd74ca"
    },
    {
      "constant": true,
      "inputs": [],
      "name": "viewTotal",
      "outputs": [
        {
          "name": "",
          "type": "uint256"
        }
      ],
      "payable": false,
      "stateMutability": "view",
      "type": "function",
      "signature": "0xb0645dc6"
    }
  ],
  "bytecode": "0x6080604052734190c332e7d40bf2e7a370bbc836f5b8832cb326600160006101000a81548173ffffffffffffffffffffffffffffffffffffffff021916908373ffffffffffffffffffffffffffffffffffffffff16021790555034801561006557600080fd5b50336000806101000a81548173ffffffffffffffffffffffffffffffffffffffff021916908373ffffffffffffffffffffffffffffffffffffffff16021790555061028f806100b56000396000f3fe608060405260043610610051576000357c0100000000000000000000000000000000000000000000000000000000900480634bde38c81461005657806367dd74ca146100ad578063b0645dc6146100db575b600080fd5b34801561006257600080fd5b5061006b610106565b604051808273ffffffffffffffffffffffffffffffffffffffff1673ffffffffffffffffffffffffffffffffffffffff16815260200191505060405180910390f35b6100d9600480360360208110156100c357600080fd5b810190808035906020019092919050505061012c565b005b3480156100e757600080fd5b506100f0610259565b6040518082815260200191505060405180910390f35b600160009054906101000a900473ffffffffffffffffffffffffffffffffffffffff1681565b80670de0b6b3a764000002341415156101d3576040517f08c379a00000000000000000000000000000000000000000000000000000000081526004018080602001828103825260218152602001807fe8ab8be7a2bae8aa8de5b8b3e688b6e9a498e9a18de698afe590a6e6ada3e7a281526020017fba0000000000000000000000000000000000000000000000000000000000000081525060400191505060405180910390fd5b600160009054906101000a900473ffffffffffffffffffffffffffffffffffffffff1673ffffffffffffffffffffffffffffffffffffffff166108fc82670de0b6b3a7640000029081150290604051600060405180830381858888f19350505050158015610245573d6000803e3d6000fd5b508060026000828254019250508190555050565b600060025490509056fea165627a7a723058201a21335e838c5c55ca723b1bae2b10abed7c3f5cd4c90a3da6782d78a799d0d50029",
  "source": "pragma solidity >=0.4.21 <0.6.0;\n\ncontract BuyTicket {\n    address payable buyer;\n    address payable public platform = 0x4190C332e7D40bF2E7A370Bbc836F5b8832CB326;\n    uint total;\n\n    mapping (address => uint) balances;\n\n    constructor() public {\n        buyer = msg.sender;\n    }\n\n    function buyTicket(uint _amount) public payable {\n        require(msg.value == 1 ether * _amount, \"請確認帳戶餘額是否正確\");\n        platform.transfer(1 ether * _amount);\n        total += _amount;\n    }\n\n    function viewTotal() public view returns (uint) {\n        return total;\n    }\n}",
  "sourcePath": "/Applications/XAMPP/xamppfiles/htdocs/Eticket36/contracts/BuyTicket.sol",
  "compiler": {
    "name": "solc",
    "version": "0.5.1+commit.c8a2cb62.Emscripten.clang"
  },
  "schemaVersion": "3.0.2",
  "updatedAt": "2019-04-24T07:22:51.087Z",
  "devdoc": {
    "methods": {}
  },
  "userdoc": {
    "methods": {}
  }
}