{
  "contractName": "BuyTickets",
  "abi": [
    {
      "constant": true,
      "inputs": [],
      "name": "owner",
      "outputs": [
        {
          "name": "",
          "type": "address"
        }
      ],
      "payable": false,
      "stateMutability": "view",
      "type": "function",
      "signature": "0x8da5cb5b"
    },
    {
      "constant": true,
      "inputs": [
        {
          "name": "",
          "type": "uint256"
        }
      ],
      "name": "buyerAccounts",
      "outputs": [
        {
          "name": "",
          "type": "address"
        }
      ],
      "payable": false,
      "stateMutability": "view",
      "type": "function",
      "signature": "0xa3d3cd13"
    },
    {
      "constant": true,
      "inputs": [],
      "name": "countConfirms",
      "outputs": [
        {
          "name": "",
          "type": "uint256"
        }
      ],
      "payable": false,
      "stateMutability": "view",
      "type": "function",
      "signature": "0xe2c87186"
    },
    {
      "inputs": [],
      "payable": false,
      "stateMutability": "nonpayable",
      "type": "constructor",
      "signature": "constructor"
    },
    {
      "constant": false,
      "inputs": [
        {
          "name": "_address",
          "type": "address"
        },
        {
          "name": "_email",
          "type": "string"
        },
        {
          "name": "_status",
          "type": "bool"
        }
      ],
      "name": "setBuyer",
      "outputs": [],
      "payable": false,
      "stateMutability": "nonpayable",
      "type": "function",
      "signature": "0x84e400c9"
    },
    {
      "constant": false,
      "inputs": [],
      "name": "confirm",
      "outputs": [],
      "payable": true,
      "stateMutability": "payable",
      "type": "function",
      "signature": "0x7022b58e"
    },
    {
      "constant": false,
      "inputs": [],
      "name": "cancel",
      "outputs": [],
      "payable": true,
      "stateMutability": "payable",
      "type": "function",
      "signature": "0xea8a1af0"
    },
    {
      "constant": false,
      "inputs": [],
      "name": "buyTickets",
      "outputs": [],
      "payable": true,
      "stateMutability": "payable",
      "type": "function",
      "signature": "0xc8199826"
    },
    {
      "constant": true,
      "inputs": [
        {
          "name": "arr",
          "type": "address[]"
        },
        {
          "name": "find",
          "type": "address"
        }
      ],
      "name": "includes",
      "outputs": [
        {
          "name": "",
          "type": "bool"
        }
      ],
      "payable": false,
      "stateMutability": "pure",
      "type": "function",
      "signature": "0x945818c5"
    },
    {
      "constant": true,
      "inputs": [],
      "name": "checkIfTrue",
      "outputs": [
        {
          "name": "",
          "type": "bool"
        }
      ],
      "payable": false,
      "stateMutability": "view",
      "type": "function",
      "signature": "0x27a6dc88"
    },
    {
      "constant": true,
      "inputs": [
        {
          "name": "arr",
          "type": "address"
        }
      ],
      "name": "checkDuplicate",
      "outputs": [
        {
          "name": "",
          "type": "bool"
        }
      ],
      "payable": false,
      "stateMutability": "view",
      "type": "function",
      "signature": "0x74eba0fe"
    }
  ],
  "bytecode": "0x6080604052734190c332e7d40bf2e7a370bbc836f5b8832cb3266000806101000a81548173ffffffffffffffffffffffffffffffffffffffff021916908373ffffffffffffffffffffffffffffffffffffffff1602179055506000600155600060045534801561006e57600080fd5b50670de0b6b3a7640000600381905550610ca38061008d6000396000f3fe60806040526004361061009e576000357c01000000000000000000000000000000000000000000000000000000009004806327a6dc88146100a35780637022b58e146100d257806374eba0fe146100dc57806384e400c9146101455780638da5cb5b14610239578063945818c514610290578063a3d3cd131461038d578063c819982614610408578063e2c8718614610412578063ea8a1af01461043d575b600080fd5b3480156100af57600080fd5b506100b8610447565b604051808215151515815260200191505060405180910390f35b6100da610533565b005b3480156100e857600080fd5b5061012b600480360360208110156100ff57600080fd5b81019080803573ffffffffffffffffffffffffffffffffffffffff1690602001909291905050506106b2565b604051808215151515815260200191505060405180910390f35b34801561015157600080fd5b506102376004803603606081101561016857600080fd5b81019080803573ffffffffffffffffffffffffffffffffffffffff169060200190929190803590602001906401000000008111156101a557600080fd5b8201836020820111156101b757600080fd5b803590602001918460018302840111640100000000831117156101d957600080fd5b91908080601f016020809104026020016040519081016040528093929190818152602001838380828437600081840152601f19601f820116905080830192505050505050509192919290803515159060200190929190505050610770565b005b34801561024557600080fd5b5061024e6108e2565b604051808273ffffffffffffffffffffffffffffffffffffffff1673ffffffffffffffffffffffffffffffffffffffff16815260200191505060405180910390f35b34801561029c57600080fd5b50610373600480360360408110156102b357600080fd5b81019080803590602001906401000000008111156102d057600080fd5b8201836020820111156102e257600080fd5b8035906020019184602083028401116401000000008311171561030457600080fd5b919080806020026020016040519081016040528093929190818152602001838360200280828437600081840152601f19601f820116905080830192505050505050509192919290803573ffffffffffffffffffffffffffffffffffffffff169060200190929190505050610907565b604051808215151515815260200191505060405180910390f35b34801561039957600080fd5b506103c6600480360360208110156103b057600080fd5b810190808035906020019092919050505061099e565b604051808273ffffffffffffffffffffffffffffffffffffffff1673ffffffffffffffffffffffffffffffffffffffff16815260200191505060405180910390f35b6104106109dc565b005b34801561041e57600080fd5b50610427610a62565b6040518082815260200191505060405180910390f35b610445610a68565b005b6000806000905060008090505b60016002805490500381101561050f57600115156006600060028481548110151561047b57fe5b9060005260206000200160009054906101000a900473ffffffffffffffffffffffffffffffffffffffff1673ffffffffffffffffffffffffffffffffffffffff1673ffffffffffffffffffffffffffffffffffffffff16815260200190815260200160002060010160009054906101000a900460ff16151514156105025781806001019250505b8080600101915050610454565b5060016002805490500381141561052a576001915050610530565b60009150505b90565b6003543414151561054357600080fd5b6105d360028054806020026020016040519081016040528092919081815260200182805480156105c857602002820191906000526020600020905b8160009054906101000a900473ffffffffffffffffffffffffffffffffffffffff1673ffffffffffffffffffffffffffffffffffffffff168152602001906001019080831161057e575b505050505033610907565b15156105de57600080fd5b6001600660003373ffffffffffffffffffffffffffffffffffffffff1673ffffffffffffffffffffffffffffffffffffffff16815260200190815260200160002060010160006101000a81548160ff02191690831515021790555034600560003373ffffffffffffffffffffffffffffffffffffffff1673ffffffffffffffffffffffffffffffffffffffff1681526020019081526020016000206000828254019250508190555060046000815480929190600101919050555060028054905060045414156106b0576106af6109dc565b5b565b60008060028054905014156106ca576001905061076b565b60008090505b60016002805490500381111515610765578273ffffffffffffffffffffffffffffffffffffffff1660028281548110151561070757fe5b9060005260206000200160009054906101000a900473ffffffffffffffffffffffffffffffffffffffff1673ffffffffffffffffffffffffffffffffffffffff16141561075857600091505061076b565b80806001019150506106d0565b50600190505b919050565b600460015410151561078157600080fd5b60046002805490501115151561079657600080fd5b600115156107a3846106b2565b15151415156107b157600080fd5b81600660008573ffffffffffffffffffffffffffffffffffffffff1673ffffffffffffffffffffffffffffffffffffffff1681526020019081526020016000206000019080519060200190610807929190610bd2565b5080600660008573ffffffffffffffffffffffffffffffffffffffff1673ffffffffffffffffffffffffffffffffffffffff16815260200190815260200160002060010160006101000a81548160ff021916908315150217905550600160028490806001815401808255809150509060018203906000526020600020016000909192909190916101000a81548173ffffffffffffffffffffffffffffffffffffffff021916908373ffffffffffffffffffffffffffffffffffffffff1602179055505050600160008154809291906001019190505550505050565b6000809054906101000a900473ffffffffffffffffffffffffffffffffffffffff1681565b6000806000905060008090505b845181101561097e578373ffffffffffffffffffffffffffffffffffffffff16858281518110151561094257fe5b9060200190602002015173ffffffffffffffffffffffffffffffffffffffff1614156109715781806001019250505b8080600101915050610914565b506000811115610992576001915050610998565b60009150505b92915050565b6002818154811015156109ad57fe5b906000526020600020016000915054906101000a900473ffffffffffffffffffffffffffffffffffffffff1681565b6109e4610447565b15156109ef57600080fd5b6000809054906101000a900473ffffffffffffffffffffffffffffffffffffffff1673ffffffffffffffffffffffffffffffffffffffff166108fc600280549050600354029081150290604051600060405180830381858888f19350505050158015610a5f573d6000803e3d6000fd5b50565b60045481565b60011515600660003373ffffffffffffffffffffffffffffffffffffffff1673ffffffffffffffffffffffffffffffffffffffff16815260200190815260200160002060010160009054906101000a900460ff161515141515610aca57600080fd5b6000600660003373ffffffffffffffffffffffffffffffffffffffff1673ffffffffffffffffffffffffffffffffffffffff16815260200190815260200160002060010160006101000a81548160ff02191690831515021790555060046000815480929190600190039190505550600354600560003373ffffffffffffffffffffffffffffffffffffffff1673ffffffffffffffffffffffffffffffffffffffff168152602001908152602001600020600082825403925050819055503373ffffffffffffffffffffffffffffffffffffffff166108fc6003549081150290604051600060405180830381858888f19350505050158015610bcf573d6000803e3d6000fd5b50565b828054600181600116156101000203166002900490600052602060002090601f016020900481019282601f10610c1357805160ff1916838001178555610c41565b82800160010185558215610c41579182015b82811115610c40578251825591602001919060010190610c25565b5b509050610c4e9190610c52565b5090565b610c7491905b80821115610c70576000816000905550600101610c58565b5090565b9056fea165627a7a723058204129cecf13defeaec5bde72f9def020b895245416593ff1dd8d6380bff59e4410029",
  "source": "pragma solidity >=0.4.21 <0.6.0;\n\ncontract BuyTickets{\n  address payable public owner = 0x4190C332e7D40bF2E7A370Bbc836F5b8832CB326;\n  uint buyers = 0;\n  address[] public buyerAccounts;\n  uint price;\n  uint public countConfirms = 0; //auto pay when all buyers confirm\n  constructor() public{\n    /* owner = msg.sender; */\n    price = 1 ether;\n  }\n\n  struct Buyer {\n    string email;\n    bool status;\n  }\n\n  mapping (address => uint) balance;\n  mapping (address => Buyer) theBuyer;\n\n  // event buyerRegistered(address email);\n\n  function setBuyer(address _address, string memory _email, bool _status) public {\n    require(buyers < 4);\n    require(buyerAccounts.length <= 4);\n    require(checkDuplicate(_address) == true);\n    /* var buyer = theBuyer[_address]; */\n\n    theBuyer[_address].email = _email;\n    theBuyer[_address].status = _status;\n    buyerAccounts.push(_address) -1;\n    buyers++;\n    // emit buyerRegistered(buyer.email);\n  }\n  //get all the buyers\n  /* function getBuyers() view public returns(address[]){\n    return buyerAccounts;\n  } */\n  //get specific buyer;\n  /* function getBuyer(address _address) view public returns(string, bool){\n    return (theBuyer[_address].email, theBuyer[_address].status);\n  } */\n\n  //confirm(): change status to true, and put in ether\n  function confirm() public payable{\n    /* require() */\n    require(msg.value == price); //making sure they are paying the right amount\n    require(includes(buyerAccounts, msg.sender)); //making sure the account calling confirm is in the array\n    theBuyer[msg.sender].status = true; //set buyer status to true\n    balance[msg.sender] += msg.value; //remember how many a buyer paid\n    countConfirms++;\n    if(countConfirms == buyerAccounts.length){ //if all the buyers had confirm, pay automatically\n      buyTickets();\n    }\n  }\n\n  // cancel\n  function cancel() public payable{\n    require(theBuyer[msg.sender].status == true); //make sure the buyer calling cancel was true\n    theBuyer[msg.sender].status = false; //change buyer status to false\n    countConfirms--;\n    balance[msg.sender] -= price;\n    msg.sender.transfer(price); //transfer money back to buyer\n  }\n\n  //buyTickets(): transfer ether to owner\n  function buyTickets() public payable{\n    require(checkIfTrue());\n    owner.transfer(price*buyerAccounts.length); //transfer ether to the contract owner\n  }\n\n\n\n  //to make sure the account calling confirm() is in the array\n  function includes(address[] memory arr, address find) public pure returns(bool){\n    uint count = 0;\n    for(uint i =0; i< arr.length; i++){\n      if(arr[i] == find){\n        count++;\n      }\n    }\n    if(count > 0){\n      return true;\n    }\n    else{\n      return false;\n    }\n  }\n\n  //check if all accounts status is true\n  function checkIfTrue() public view returns(bool){\n    uint flag = 0;\n    for(uint j = 0; j< buyerAccounts.length -1; j++){\n      if(theBuyer[buyerAccounts[j]].status == true){\n        flag++;\n      }\n    }\n    if(flag == buyerAccounts.length -1){\n      return true;\n    }\n    else{\n      return false;\n    }\n  }\n\n  function checkDuplicate(address arr) public view returns(bool){\n    if(buyerAccounts.length == 0){\n      return true;\n    }else{\n      for(uint s = 0; s <= buyerAccounts.length -1 ; s++){\n        /* buyerAccounts[s] == arr ? false: true; */\n        if(buyerAccounts[s] == arr){\n          return false;\n        }\n        /* else{\n          return true;\n        } */\n      }\n    }\n    /* buyerAccounts.forEach( function(element) {\n      if(element != arr){\n        check = true;\n      }\n    }) */\n    return true;\n  }\n}\n/**\nconsole script\nvar accounts;\nweb3.eth.getAccounts(function(err, res){accounts = res});\nvar account1 = accounts[1]\n...\nEticket.deployed().then(inst => { test = inst })\ntest.setBuyer(account1, 'buyer1', false)\n...\ntest.confirm({from: account1, value: web3.utils.toWei('1', 'ether')});\n...\n**/",
  "sourcePath": "/Applications/XAMPP/xamppfiles/htdocs/Eticket36/contracts/BuyTickets.sol",
  "compiler": {
    "name": "solc",
    "version": "0.5.1+commit.c8a2cb62.Emscripten.clang"
  },
  "schemaVersion": "3.0.2",
  "updatedAt": "2019-04-24T07:22:51.110Z",
  "devdoc": {
    "methods": {}
  },
  "userdoc": {
    "methods": {}
  }
}