{
  "contractName": "BuyTickets",
  "abi": [
    {
      "constant": true,
      "inputs": [],
      "name": "owner",
      "outputs": [
        {
          "name": "",
          "type": "address"
        }
      ],
      "payable": false,
      "stateMutability": "view",
      "type": "function",
      "signature": "0x8da5cb5b"
    },
    {
      "constant": true,
      "inputs": [
        {
          "name": "",
          "type": "uint256"
        }
      ],
      "name": "buyerAccounts",
      "outputs": [
        {
          "name": "",
          "type": "address"
        }
      ],
      "payable": false,
      "stateMutability": "view",
      "type": "function",
      "signature": "0xa3d3cd13"
    },
    {
      "constant": true,
      "inputs": [],
      "name": "countConfirms",
      "outputs": [
        {
          "name": "",
          "type": "uint256"
        }
      ],
      "payable": false,
      "stateMutability": "view",
      "type": "function",
      "signature": "0xe2c87186"
    },
    {
      "inputs": [],
      "payable": false,
      "stateMutability": "nonpayable",
      "type": "constructor",
      "signature": "constructor"
    },
    {
      "constant": false,
      "inputs": [
        {
          "name": "arr",
          "type": "address[]"
        },
        {
          "name": "email",
          "type": "string[]"
        },
        {
          "name": "status",
          "type": "bool[]"
        }
      ],
      "name": "setBuyer",
      "outputs": [],
      "payable": false,
      "stateMutability": "nonpayable",
      "type": "function",
      "signature": "0x88af1c76"
    },
    {
      "constant": false,
      "inputs": [
        {
          "name": "_amount",
          "type": "uint256"
        }
      ],
      "name": "confirm",
      "outputs": [],
      "payable": true,
      "stateMutability": "payable",
      "type": "function",
      "signature": "0xba0179b5"
    },
    {
      "constant": false,
      "inputs": [],
      "name": "cancel",
      "outputs": [],
      "payable": true,
      "stateMutability": "payable",
      "type": "function",
      "signature": "0xea8a1af0"
    },
    {
      "constant": false,
      "inputs": [
        {
          "name": "_amount",
          "type": "uint256"
        }
      ],
      "name": "buyTickets",
      "outputs": [],
      "payable": true,
      "stateMutability": "payable",
      "type": "function",
      "signature": "0x2f366637"
    },
    {
      "constant": true,
      "inputs": [
        {
          "name": "arr",
          "type": "address[]"
        },
        {
          "name": "find",
          "type": "address"
        }
      ],
      "name": "includes",
      "outputs": [
        {
          "name": "",
          "type": "bool"
        }
      ],
      "payable": false,
      "stateMutability": "pure",
      "type": "function",
      "signature": "0x945818c5"
    },
    {
      "constant": true,
      "inputs": [],
      "name": "checkIfTrue",
      "outputs": [
        {
          "name": "",
          "type": "bool"
        }
      ],
      "payable": false,
      "stateMutability": "view",
      "type": "function",
      "signature": "0x27a6dc88"
    },
    {
      "constant": true,
      "inputs": [
        {
          "name": "arr",
          "type": "address"
        }
      ],
      "name": "checkDuplicate",
      "outputs": [
        {
          "name": "",
          "type": "bool"
        }
      ],
      "payable": false,
      "stateMutability": "view",
      "type": "function",
      "signature": "0x74eba0fe"
    }
  ],
  "bytecode": "0x60806040527351e250f6f5f8ecff5371f7be31d4e483c554fa876000806101000a81548173ffffffffffffffffffffffffffffffffffffffff021916908373ffffffffffffffffffffffffffffffffffffffff1602179055506000600155600060045534801561006e57600080fd5b50610fd88061007e6000396000f3fe60806040526004361061009e576000357c01000000000000000000000000000000000000000000000000000000009004806327a6dc88146100a35780632f366637146100ce57806374eba0fe146100ea57806388af1c76146101275780638da5cb5b14610150578063945818c51461017b578063a3d3cd13146101b8578063ba0179b5146101f5578063e2c8718614610211578063ea8a1af01461023c575b600080fd5b3480156100af57600080fd5b506100b8610246565b6040516100c59190610e06565b60405180910390f35b6100e860048036036100e39190810190610d6b565b610332565b005b3480156100f657600080fd5b50610111600480360361010c9190810190610c57565b6103ba565b60405161011e9190610e06565b60405180910390f35b34801561013357600080fd5b5061014e60048036036101499190810190610cd4565b610478565b005b34801561015c57600080fd5b50610165610627565b6040516101729190610deb565b60405180910390f35b34801561018757600080fd5b506101a2600480360361019d9190810190610c80565b61064c565b6040516101af9190610e06565b60405180910390f35b3480156101c457600080fd5b506101df60048036036101da9190810190610d6b565b6106e3565b6040516101ec9190610dd0565b60405180910390f35b61020f600480360361020a9190810190610d6b565b610721565b005b34801561021d57600080fd5b50610226610892565b6040516102339190610e21565b60405180910390f35b610244610898565b005b6000806000905060008090505b60016002805490500381101561030e57600115156006600060028481548110151561027a57fe5b9060005260206000200160009054906101000a900473ffffffffffffffffffffffffffffffffffffffff1673ffffffffffffffffffffffffffffffffffffffff1673ffffffffffffffffffffffffffffffffffffffff16815260200190815260200160002060010160009054906101000a900460ff16151514156103015781806001019250505b8080600101915050610253565b5060016002805490500381141561032957600191505061032f565b60009150505b90565b61033a610246565b151561034557600080fd5b6000809054906101000a900473ffffffffffffffffffffffffffffffffffffffff1673ffffffffffffffffffffffffffffffffffffffff166108fc82670de0b6b3a7640000029081150290604051600060405180830381858888f193505050501580156103b6573d6000803e3d6000fd5b5050565b60008060028054905014156103d25760019050610473565b60008090505b6001600280549050038111151561046d578273ffffffffffffffffffffffffffffffffffffffff1660028281548110151561040f57fe5b9060005260206000200160009054906101000a900473ffffffffffffffffffffffffffffffffffffffff1673ffffffffffffffffffffffffffffffffffffffff161415610460576000915050610473565b80806001019150506103d8565b50600190505b919050565b60008090505b835181101561062157828181518110151561049557fe5b906020019060200201516006600086848151811015156104b157fe5b9060200190602002015173ffffffffffffffffffffffffffffffffffffffff1673ffffffffffffffffffffffffffffffffffffffff168152602001908152602001600020600001908051906020019061050b9291906109a0565b50818181518110151561051a57fe5b9060200190602002015160066000868481518110151561053657fe5b9060200190602002015173ffffffffffffffffffffffffffffffffffffffff1673ffffffffffffffffffffffffffffffffffffffff16815260200190815260200160002060010160006101000a81548160ff0219169083151502179055506001600285838151811015156105a657fe5b9060200190602002015190806001815401808255809150509060018203906000526020600020016000909192909190916101000a81548173ffffffffffffffffffffffffffffffffffffffff021916908373ffffffffffffffffffffffffffffffffffffffff1602179055505050808060010191505061047e565b50505050565b6000809054906101000a900473ffffffffffffffffffffffffffffffffffffffff1681565b6000806000905060008090505b84518110156106c3578373ffffffffffffffffffffffffffffffffffffffff16858281518110151561068757fe5b9060200190602002015173ffffffffffffffffffffffffffffffffffffffff1614156106b65781806001019250505b8080600101915050610659565b5060008111156106d75760019150506106dd565b60009150505b92915050565b6002818154811015156106f257fe5b906000526020600020016000915054906101000a900473ffffffffffffffffffffffffffffffffffffffff1681565b6107b160028054806020026020016040519081016040528092919081815260200182805480156107a657602002820191906000526020600020905b8160009054906101000a900473ffffffffffffffffffffffffffffffffffffffff1673ffffffffffffffffffffffffffffffffffffffff168152602001906001019080831161075c575b50505050503361064c565b15156107bc57600080fd5b6001600660003373ffffffffffffffffffffffffffffffffffffffff1673ffffffffffffffffffffffffffffffffffffffff16815260200190815260200160002060010160006101000a81548160ff02191690831515021790555034600560003373ffffffffffffffffffffffffffffffffffffffff1673ffffffffffffffffffffffffffffffffffffffff16815260200190815260200160002060008282540192505081905550600460008154809291906001019190505550600280549050600454141561088f5761088e81610332565b5b50565b60045481565b6000600660003373ffffffffffffffffffffffffffffffffffffffff1673ffffffffffffffffffffffffffffffffffffffff16815260200190815260200160002060010160006101000a81548160ff02191690831515021790555060046000815480929190600190039190505550600354600560003373ffffffffffffffffffffffffffffffffffffffff1673ffffffffffffffffffffffffffffffffffffffff168152602001908152602001600020600082825403925050819055503373ffffffffffffffffffffffffffffffffffffffff166108fc6003549081150290604051600060405180830381858888f1935050505015801561099d573d6000803e3d6000fd5b50565b828054600181600116156101000203166002900490600052602060002090601f016020900481019282601f106109e157805160ff1916838001178555610a0f565b82800160010185558215610a0f579182015b82811115610a0e5782518255916020019190600101906109f3565b5b509050610a1c9190610a20565b5090565b610a4291905b80821115610a3e576000816000905550600101610a26565b5090565b90565b6000610a518235610f67565b905092915050565b600082601f8301121515610a6c57600080fd5b8135610a7f610a7a82610e69565b610e3c565b91508181835260208401935060208101905083856020840282011115610aa457600080fd5b60005b83811015610ad45781610aba8882610a45565b845260208401935060208301925050600181019050610aa7565b5050505092915050565b600082601f8301121515610af157600080fd5b8135610b04610aff82610e91565b610e3c565b91508181835260208401935060208101905083856020840282011115610b2957600080fd5b60005b83811015610b595781610b3f8882610bd9565b845260208401935060208301925050600181019050610b2c565b5050505092915050565b600082601f8301121515610b7657600080fd5b8135610b89610b8482610eb9565b610e3c565b9150818183526020840193506020810190508360005b83811015610bcf5781358601610bb58882610bed565b845260208401935060208301925050600181019050610b9f565b5050505092915050565b6000610be58235610f79565b905092915050565b600082601f8301121515610c0057600080fd5b8135610c13610c0e82610ee1565b610e3c565b91508082526020830160208301858383011115610c2f57600080fd5b610c3a838284610f8f565b50505092915050565b6000610c4f8235610f85565b905092915050565b600060208284031215610c6957600080fd5b6000610c7784828501610a45565b91505092915050565b60008060408385031215610c9357600080fd5b600083013567ffffffffffffffff811115610cad57600080fd5b610cb985828601610a59565b9250506020610cca85828601610a45565b9150509250929050565b600080600060608486031215610ce957600080fd5b600084013567ffffffffffffffff811115610d0357600080fd5b610d0f86828701610a59565b935050602084013567ffffffffffffffff811115610d2c57600080fd5b610d3886828701610b63565b925050604084013567ffffffffffffffff811115610d5557600080fd5b610d6186828701610ade565b9150509250925092565b600060208284031215610d7d57600080fd5b6000610d8b84828501610c43565b91505092915050565b610d9d81610f1f565b82525050565b610dac81610f0d565b82525050565b610dbb81610f31565b82525050565b610dca81610f5d565b82525050565b6000602082019050610de56000830184610da3565b92915050565b6000602082019050610e006000830184610d94565b92915050565b6000602082019050610e1b6000830184610db2565b92915050565b6000602082019050610e366000830184610dc1565b92915050565b6000604051905081810181811067ffffffffffffffff82111715610e5f57600080fd5b8060405250919050565b600067ffffffffffffffff821115610e8057600080fd5b602082029050602081019050919050565b600067ffffffffffffffff821115610ea857600080fd5b602082029050602081019050919050565b600067ffffffffffffffff821115610ed057600080fd5b602082029050602081019050919050565b600067ffffffffffffffff821115610ef857600080fd5b601f19601f8301169050602081019050919050565b6000610f1882610f3d565b9050919050565b6000610f2a82610f3d565b9050919050565b60008115159050919050565b600073ffffffffffffffffffffffffffffffffffffffff82169050919050565b6000819050919050565b6000610f7282610f3d565b9050919050565b60008115159050919050565b6000819050919050565b8281833760008383015250505056fea265627a7a72305820e2580cc51c4b6c941fa48254f993343928b287bbe59bb4272affbd21372d78316c6578706572696d656e74616cf50037",
  "source": "pragma solidity >=0.4.21 <0.6.0;\npragma experimental ABIEncoderV2;\n\ncontract BuyTickets{\n  address payable public owner = 0x51E250f6F5F8eCff5371f7bE31D4e483C554FA87;\n  uint buyers = 0;\n  address[] public buyerAccounts;\n  uint price;\n  uint public countConfirms = 0; //auto pay when all buyers confirm\n  constructor() public{\n    /* owner = msg.sender; */\n    // price = 1 ether;\n  }\n\n  struct Buyer {\n    string email;\n    bool status;\n  }\n\n  mapping (address => uint) balance;\n  mapping (address => Buyer) theBuyer;\n\n  // event buyerRegistered(address email);\n\n  function setBuyer(address[] memory arr, string[] memory email, bool[] memory status) public {\n    /* var buyer = theBuyer[_address]; */\n    // theBuyer[arr[0]].email = \" \";\n    // theBuyer[arr[0]].status = false;\n    // buyerAccounts[0] = arr[0];\n    for(uint i = 0; i < arr.length ; i++){\n      theBuyer[arr[i]].email = email[i];\n      theBuyer[arr[i]].status = status[i];\n      buyerAccounts.push(arr[i]) - 1;\n    }\n    // emit buyerRegistered(buyer.email);\n  }\n  //get all the buyers\n  /* function getBuyers() view public returns(address[]){\n    return buyerAccounts;\n  } */\n  //get specific buyer;\n  /* function getBuyer(address _address) view public returns(string, bool){\n    return (theBuyer[_address].email, theBuyer[_address].status);\n  } */\n\n  //confirm(): change status to true, and put in ether\n  function confirm(uint _amount) public payable{\n    /* require() */\n    // require(msg.value == price); //making sure they are paying the right amount\n    require(includes(buyerAccounts, msg.sender)); //making sure the account calling confirm is in the array\n    theBuyer[msg.sender].status = true; //set buyer status to true\n    balance[msg.sender] += msg.value; //remember how many a buyer paid\n    countConfirms++;\n    if(countConfirms == buyerAccounts.length){ //if all the buyers had confirm, pay automatically\n      buyTickets(_amount);\n    }\n  }\n\n  // cancel\n  function cancel() public payable{\n    // require(theBuyer[msg.sender].status == true); //make sure the buyer calling cancel was true\n    theBuyer[msg.sender].status = false; //change buyer status to false\n    countConfirms--;\n    balance[msg.sender] -= price;\n    msg.sender.transfer(price); //transfer money back to buyer\n  }\n\n  //buyTickets(): transfer ether to owner\n  function buyTickets(uint _amount) public payable{\n    require(checkIfTrue());\n    owner.transfer(1 ether * _amount); //transfer ether to the contract owner\n  }\n\n\n\n  //to make sure the account calling confirm() is in the array\n  function includes(address[] memory arr, address find) public pure returns(bool){\n    uint count = 0;\n    for(uint i = 0; i < arr.length; i++){\n      if(arr[i] == find){\n        count++;\n      }\n    }\n    if(count > 0){\n      return true;\n    }\n    else{\n      return false;\n    }\n  }\n\n  //check if all accounts status is true\n  function checkIfTrue() public view returns(bool){\n    uint flag = 0;\n    for(uint j = 0; j< buyerAccounts.length -1; j++){\n      if(theBuyer[buyerAccounts[j]].status == true){\n        flag++;\n      }\n    }\n    if(flag == buyerAccounts.length -1){\n      return true;\n    }\n    else{\n      return false;\n    }\n  }\n\n  function checkDuplicate(address arr) public view returns(bool){\n    if(buyerAccounts.length == 0){\n      return true;\n    }else{\n      for(uint s = 0; s <= buyerAccounts.length -1 ; s++){\n        /* buyerAccounts[s] == arr ? false: true; */\n        if(buyerAccounts[s] == arr){\n          return false;\n        }\n        /* else{\n          return true;\n        } */\n      }\n    }\n    /* buyerAccounts.forEach( function(element) {\n      if(element != arr){\n        check = true;\n      }\n    }) */\n    return true;\n  }\n}\n/**\nconsole script\nvar accounts;\nweb3.eth.getAccounts(function(err, res){accounts = res});\nvar account1 = accounts[1]\n...\nEticket.deployed().then(inst => { test = inst })\ntest.setBuyer(account1, 'buyer1', false)\n...\ntest.confirm({from: account1, value: web3.utils.toWei('1', 'ether')});\n...\n**/",
  "sourcePath": "/Applications/XAMPP/xamppfiles/htdocs/Eticket36/contracts/BuyTickets.sol",
  "compiler": {
    "name": "solc",
    "version": "0.5.1+commit.c8a2cb62.Emscripten.clang"
  },
  "schemaVersion": "3.0.2",
  "updatedAt": "2019-05-15T06:50:19.722Z",
  "devdoc": {
    "methods": {}
  },
  "userdoc": {
    "methods": {}
  }
}