{
  "contractName": "Deposite",
  "abi": [
    {
      "constant": true,
      "inputs": [],
      "name": "platform",
      "outputs": [
        {
          "name": "",
          "type": "address"
        }
      ],
      "payable": false,
      "stateMutability": "view",
      "type": "function",
      "signature": "0x4bde38c8"
    },
    {
      "inputs": [],
      "payable": false,
      "stateMutability": "nonpayable",
      "type": "constructor",
      "signature": "constructor"
    },
    {
      "constant": false,
      "inputs": [],
      "name": "deposite",
      "outputs": [],
      "payable": true,
      "stateMutability": "payable",
      "type": "function",
      "signature": "0xa50ec326"
    },
    {
      "constant": false,
      "inputs": [
        {
          "name": "_amount",
          "type": "uint256"
        }
      ],
      "name": "withdraw",
      "outputs": [],
      "payable": false,
      "stateMutability": "nonpayable",
      "type": "function",
      "signature": "0x2e1a7d4d"
    }
  ],
  "bytecode": "0x608060405273724091f781a3b0690e35f5ac7e9601cfee25c0ed6000806101000a81548173ffffffffffffffffffffffffffffffffffffffff021916908373ffffffffffffffffffffffffffffffffffffffff16021790555034801561006457600080fd5b5033600160006101000a81548173ffffffffffffffffffffffffffffffffffffffff021916908373ffffffffffffffffffffffffffffffffffffffff16021790555061027f806100b56000396000f3fe608060405260043610610051576000357c0100000000000000000000000000000000000000000000000000000000900480632e1a7d4d146100565780634bde38c814610091578063a50ec326146100e8575b600080fd5b34801561006257600080fd5b5061008f6004803603602081101561007957600080fd5b81019080803590602001909291905050506100f2565b005b34801561009d57600080fd5b506100a6610146565b604051808273ffffffffffffffffffffffffffffffffffffffff1673ffffffffffffffffffffffffffffffffffffffff16815260200191505060405180910390f35b6100f061016b565b005b3373ffffffffffffffffffffffffffffffffffffffff166108fc670de0b6b3a764000083029081150290604051600060405180830381858888f19350505050158015610142573d6000803e3d6000fd5b5050565b6000809054906101000a900473ffffffffffffffffffffffffffffffffffffffff1681565b6000809054906101000a900473ffffffffffffffffffffffffffffffffffffffff1673ffffffffffffffffffffffffffffffffffffffff16600160009054906101000a900473ffffffffffffffffffffffffffffffffffffffff1673ffffffffffffffffffffffffffffffffffffffff16141515610251576040517f08c379a000000000000000000000000000000000000000000000000000000000815260040180806020018281038252600f8152602001807fe99d9ee5b9b3e58fb0e5b8b3e8999f000000000000000000000000000000000081525060200191505060405180910390fd5b56fea165627a7a72305820e956b8569f427cba35c85cddfd9e962985e8eeb90a68cf1c268992eabb4d30e80029",
  "source": "pragma solidity >=0.4.21 <0.6.0;\n\ncontract Deposite {\n    address payable public platform = 0x724091f781a3b0690E35f5Ac7e9601cfeE25c0eD;\n    address payable buyer;\n\n    constructor() public {\n        buyer = msg.sender;\n    }\n\n    function deposite() public payable {\n        require(buyer == platform, \"非平台帳號\");\n    }\n\n    function withdraw(uint _amount) public {\n        // require(buyer != platform, \"平台帳號不能購買平台幣\");\n        msg.sender.transfer(_amount * 1 ether);\n    }\n}",
  "sourcePath": "/Applications/XAMPP/xamppfiles/htdocs/Eticket36/contracts/Deposite.sol",
  "compiler": {
    "name": "solc",
    "version": "0.5.1+commit.c8a2cb62.Emscripten.clang"
  },
  "schemaVersion": "3.0.2",
  "updatedAt": "2019-05-27T14:14:54.813Z",
  "devdoc": {
    "methods": {}
  },
  "userdoc": {
    "methods": {}
  }
}