{
  "contractName": "Deposite",
  "abi": [
    {
      "constant": true,
      "inputs": [],
      "name": "platform",
      "outputs": [
        {
          "name": "",
          "type": "address"
        }
      ],
      "payable": false,
      "stateMutability": "view",
      "type": "function",
      "signature": "0x4bde38c8"
    },
    {
      "inputs": [],
      "payable": false,
      "stateMutability": "nonpayable",
      "type": "constructor",
      "signature": "constructor"
    },
    {
      "constant": false,
      "inputs": [
        {
          "name": "_amount",
          "type": "uint256"
        }
      ],
      "name": "deposite",
      "outputs": [],
      "payable": true,
      "stateMutability": "payable",
      "type": "function",
      "signature": "0x3104562b"
    },
    {
      "constant": false,
      "inputs": [
        {
          "name": "_amount",
          "type": "uint256"
        }
      ],
      "name": "withdraw",
      "outputs": [],
      "payable": true,
      "stateMutability": "payable",
      "type": "function",
      "signature": "0x2e1a7d4d"
    }
  ],
  "bytecode": "0x608060405273724091f781a3b0690e35f5ac7e9601cfee25c0ed6000806101000a81548173ffffffffffffffffffffffffffffffffffffffff021916908373ffffffffffffffffffffffffffffffffffffffff16021790555034801561006457600080fd5b5033600160006101000a81548173ffffffffffffffffffffffffffffffffffffffff021916908373ffffffffffffffffffffffffffffffffffffffff160217905550610433806100b56000396000f3fe608060405260043610610051576000357c0100000000000000000000000000000000000000000000000000000000900480632e1a7d4d146100565780633104562b146100845780634bde38c8146100b2575b600080fd5b6100826004803603602081101561006c57600080fd5b8101908080359060200190929190505050610109565b005b6100b06004803603602081101561009a57600080fd5b8101908080359060200190929190505050610282565b005b3480156100be57600080fd5b506100c76103e2565b604051808273ffffffffffffffffffffffffffffffffffffffff1673ffffffffffffffffffffffffffffffffffffffff16815260200191505060405180910390f35b6000809054906101000a900473ffffffffffffffffffffffffffffffffffffffff1673ffffffffffffffffffffffffffffffffffffffff16600160009054906101000a900473ffffffffffffffffffffffffffffffffffffffff1673ffffffffffffffffffffffffffffffffffffffff1614151515610216576040517f08c379a00000000000000000000000000000000000000000000000000000000081526004018080602001828103825260218152602001807fe5b9b3e58fb0e5b8b3e8999fe4b88de883bde8b3bce8b2b7e5b9b3e58fb0e5b981526020017fa30000000000000000000000000000000000000000000000000000000000000081525060400191505060405180910390fd5b600160009054906101000a900473ffffffffffffffffffffffffffffffffffffffff1673ffffffffffffffffffffffffffffffffffffffff166108fc829081150290604051600060405180830381858888f1935050505015801561027e573d6000803e3d6000fd5b5050565b6000809054906101000a900473ffffffffffffffffffffffffffffffffffffffff1673ffffffffffffffffffffffffffffffffffffffff16600160009054906101000a900473ffffffffffffffffffffffffffffffffffffffff1673ffffffffffffffffffffffffffffffffffffffff16141515610368576040517f08c379a000000000000000000000000000000000000000000000000000000000815260040180806020018281038252600f8152602001807fe99d9ee5b9b3e58fb0e5b8b3e8999f000000000000000000000000000000000081525060200191505060405180910390fd5b80341415156103df576040517f08c379a00000000000000000000000000000000000000000000000000000000081526004018080602001828103825260028152602001807f6f6b00000000000000000000000000000000000000000000000000000000000081525060200191505060405180910390fd5b50565b6000809054906101000a900473ffffffffffffffffffffffffffffffffffffffff168156fea165627a7a723058206cd808303e2d36d7f960b55c80baf7f191259b89333c9be691bbc44b08493af70029",
  "source": "pragma solidity >=0.4.21 <0.6.0;\n\ncontract Deposite {\n    address payable public platform = 0x724091f781a3b0690E35f5Ac7e9601cfeE25c0eD;\n    address payable buyer;\n\n    constructor() public {\n        buyer = msg.sender;\n    }\n\n    function deposite(uint _amount) public payable {\n        require(buyer == platform, \"非平台帳號\");\n        require(msg.value == _amount, \"ok\");\n    }\n\n    function withdraw(uint _amount) public payable {\n        require(buyer != platform, \"平台帳號不能購買平台幣\");\n        buyer.transfer(_amount);\n    }\n}",
  "sourcePath": "/Applications/XAMPP/xamppfiles/htdocs/Eticket36/contracts/deposite.sol",
  "compiler": {
    "name": "solc",
    "version": "0.5.1+commit.c8a2cb62.Emscripten.clang"
  },
  "schemaVersion": "3.0.2",
  "updatedAt": "2019-05-12T07:05:27.467Z",
  "devdoc": {
    "methods": {}
  },
  "userdoc": {
    "methods": {}
  }
}