{
  "contractName": "Eticket",
  "abi": [
    {
      "inputs": [],
      "payable": false,
      "stateMutability": "nonpayable",
      "type": "constructor",
      "signature": "constructor"
    },
    {
      "constant": false,
      "inputs": [
        {
          "name": "recAddress",
          "type": "address"
        }
      ],
      "name": "setReceiver",
      "outputs": [],
      "payable": false,
      "stateMutability": "nonpayable",
      "type": "function",
      "signature": "0x718da7ee"
    },
    {
      "constant": true,
      "inputs": [],
      "name": "getReceiver",
      "outputs": [
        {
          "name": "",
          "type": "address"
        }
      ],
      "payable": false,
      "stateMutability": "view",
      "type": "function",
      "signature": "0x98aca922"
    },
    {
      "constant": false,
      "inputs": [
        {
          "name": "_days",
          "type": "uint256"
        }
      ],
      "name": "setDays",
      "outputs": [],
      "payable": false,
      "stateMutability": "nonpayable",
      "type": "function",
      "signature": "0xebea3815"
    },
    {
      "constant": true,
      "inputs": [],
      "name": "getDays",
      "outputs": [
        {
          "name": "",
          "type": "uint256"
        }
      ],
      "payable": false,
      "stateMutability": "view",
      "type": "function",
      "signature": "0xa1545ef5"
    },
    {
      "constant": false,
      "inputs": [],
      "name": "sendToContract",
      "outputs": [],
      "payable": true,
      "stateMutability": "payable",
      "type": "function",
      "signature": "0x0a4c137c"
    },
    {
      "constant": true,
      "inputs": [],
      "name": "getContractBalance",
      "outputs": [
        {
          "name": "",
          "type": "uint256"
        }
      ],
      "payable": false,
      "stateMutability": "view",
      "type": "function",
      "signature": "0x6f9fb98a"
    },
    {
      "constant": false,
      "inputs": [],
      "name": "transferToOrganizer",
      "outputs": [],
      "payable": true,
      "stateMutability": "payable",
      "type": "function",
      "signature": "0xdc537e0a"
    }
  ],
  "bytecode": "0x60806040526000600460006101000a81548160ff021916908360ff160217905550670de0b6b3a764000060055534801561003857600080fd5b50336000806101000a81548173ffffffffffffffffffffffffffffffffffffffff021916908373ffffffffffffffffffffffffffffffffffffffff160217905550610690806100886000396000f3fe60806040526004361061007d576000357c0100000000000000000000000000000000000000000000000000000000900480630a4c137c146100825780636f9fb98a1461008c578063718da7ee146100b757806398aca92214610108578063a1545ef51461015f578063dc537e0a1461018a578063ebea381514610194575b600080fd5b61008a6101cf565b005b34801561009857600080fd5b506100a16102ac565b6040518082815260200191505060405180910390f35b3480156100c357600080fd5b50610106600480360360208110156100da57600080fd5b81019080803573ffffffffffffffffffffffffffffffffffffffff169060200190929190505050610314565b005b34801561011457600080fd5b5061011d610358565b604051808273ffffffffffffffffffffffffffffffffffffffff1673ffffffffffffffffffffffffffffffffffffffff16815260200191505060405180910390f35b34801561016b57600080fd5b50610174610382565b6040518082815260200191505060405180910390f35b61019261038c565b005b3480156101a057600080fd5b506101cd600480360360208110156101b757600080fd5b8101908080359060200190929190505050610642565b005b6000809054906101000a900473ffffffffffffffffffffffffffffffffffffffff1673ffffffffffffffffffffffffffffffffffffffff163373ffffffffffffffffffffffffffffffffffffffff1614151561022a57600080fd5b6005543414151561023a57600080fd5b600554600660008060009054906101000a900473ffffffffffffffffffffffffffffffffffffffff1673ffffffffffffffffffffffffffffffffffffffff1673ffffffffffffffffffffffffffffffffffffffff16815260200190815260200160002060008282540192505081905550565b6000600660008060009054906101000a900473ffffffffffffffffffffffffffffffffffffffff1673ffffffffffffffffffffffffffffffffffffffff1673ffffffffffffffffffffffffffffffffffffffff16815260200190815260200160002054905090565b80600160006101000a81548173ffffffffffffffffffffffffffffffffffffffff021916908373ffffffffffffffffffffffffffffffffffffffff16021790555050565b6000600160009054906101000a900473ffffffffffffffffffffffffffffffffffffffff16905090565b6000600254905090565b6000600354141580156103a157506003544210155b1515610487576040517f08c379a00000000000000000000000000000000000000000000000000000000081526004018080602001828103825260668152602001807fe5a682e69e9ce5b09ae69caae8a8ade5ae9ae69982e99693efbc8ce8ab8be58581526020017f88e8a8ade5ae9ae69982e99693e38082e5a682e69e9ce8bd89e5b8b3e69982e981526020017f9693e5b09ae69caae588b0efbc8ce8ab8be7ad89e8a888e69982e599a8e7b59081526020017fe69d9fe38082000000000000000000000000000000000000000000000000000081525060800191505060405180910390fd5b6000600460009054906101000a900460ff1660ff16141515610537576040517f08c379a000000000000000000000000000000000000000000000000000000000815260040180806020018281038252602d8152602001807fe6ada4e59088e7b484e5b7b2e8a2abe4bdbfe794a8efbc8ce784a1e6b395e58681526020017f8de6aca1e8bd89e5b8b3e380820000000000000000000000000000000000000081525060400191505060405180910390fd5b600160009054906101000a900473ffffffffffffffffffffffffffffffffffffffff1673ffffffffffffffffffffffffffffffffffffffff166108fc6005549081150290604051600060405180830381858888f193505050501580156105a1573d6000803e3d6000fd5b50600554600660008060009054906101000a900473ffffffffffffffffffffffffffffffffffffffff1673ffffffffffffffffffffffffffffffffffffffff1673ffffffffffffffffffffffffffffffffffffffff168152602001908152602001600020600082825403925050819055506001600460008282829054906101000a900460ff160192506101000a81548160ff021916908360ff160217905550565b80600281905550610651610654565b50565b603c60025402420160038190555056fea165627a7a72305820c67e4704bfcf99221c3e3e949312fab2a277f72535fd94397d99994a6bc9f0530029",
  "source": "pragma solidity >=0.4.21 <0.6.0;\n\ncontract Eticket {\n\n    address payable owner;\n    address payable receiver;\n    uint setDay;\n    uint expirationDate;\n    uint8 counter = 0;\n    uint amount = 1 ether;\n\n    mapping (address => uint) balances;\n\n    constructor() public {\n        owner = msg.sender;\n    }\n\n    function setReceiver(address payable recAddress) public {\n        receiver = recAddress;\n    }\n\n    function getReceiver() view public returns(address){\n        return receiver;\n    }\n\n    //Set how many days after to transfer\n    function setDays(uint _days) public {\n        setDay = _days;\n        createTimer();\n    }\n\n    function getDays() view public returns (uint) {\n        return setDay;\n    }\n\n    //Set a timer\n    function createTimer() internal {\n        expirationDate = now + setDay * 1 minutes;\n    }\n\n    //End the timer\n    modifier endTimer() {\n        require(expirationDate != 0 && now >= expirationDate, \"如果尚未設定時間，請先設定時間。如果轉帳時間尚未到，請等計時器結束。\");\n        _;\n    }\n\n    //Let this contract can only use once.\n    modifier count() {\n        require(counter == 0, \"此合約已被使用，無法再次轉帳。\");\n        _;\n    }\n\n    function sendToContract() public payable {\n        require(msg.sender == owner);\n        require(msg.value == amount);\n        balances[owner] += amount;\n    }\n\n    function getContractBalance() view public returns (uint){\n        return balances[owner];\n    }\n\n    //Transfer To Organizer\n    function transferToOrganizer() public payable endTimer() count() {\n        // require(balances[owner] == amount);\n        receiver.transfer(amount);\n        balances[owner] -= amount;\n        counter += 1;\n    }\n/**\nconsole script\nlet instance = await Eticket.deployed()\nlet accounts = await web3.eth.getAccounts()\nlet account1 = accounts[1]\ninstance.setReceiver(account1);\ninstance.getReceiver();\ninstance.setDays(1);\ninstance.sendToContract({from: account0, value: web3.utils.toWei('1','ether')})\ninstance.getContractBalance();\ninstance.transferToOrganizer();\n**/\n\n\n\n    // mapping (address => uint) balances;\n\n    // constructor() public {\n    //     balances[msg.sender] = 10000;\n    // }\n\n    // function transferToOrganizer(address receiver, uint amount) public returns(bool sufficient) {\n    //     if (balances[msg.sender] < amount) return false;\n    //     balances[msg.sender] -= amount;\n    //     balances[receiver] += amount;\n    //     emit Transfer(msg.sender, receiver, amount);\n    //     return true;\n    // }\n}\n\n\n// pragma solidity >=0.4.21 <0.6.0;\n\n// import \"./ConvertLib.sol\";\n\n// contract Eticket {\n\n//     uint setDay;\n//     uint expirationDate;\n//     uint8 counter = 0;\n\n//     mapping (address => uint) balances;\n\n//     event Transfer(address indexed _from, address indexed _to, uint256 _value);\n\n//     constructor() public {\n//         balances[msg.sender] = 10000;\n//     }\n\n//     //Set how many days after to transfer\n//     function setDays(uint _days) public {\n//         setDay = _days;\n//         createTimer();\n//     }\n\n//     //Set a timer\n//     function createTimer() internal {\n//         expirationDate = now + setDay * 1 minutes;\n//     }\n\n//     //End the timer\n//     modifier endTimer() {\n//         require(expirationDate != 0 && now >= expirationDate, \"如果尚未設定時間，請先設定時間。如果轉帳時間尚未到，請等計時器結束。\");\n//         _;\n//     }\n\n//     //Let this contract can only use once.\n//     modifier count() {\n//         require(counter == 0, \"此合約已被使用，無法再次轉帳。\");\n//         _;\n//     }\n\n//     //Transfer To Organizer\n//     function transferToOrganizer(address _addr,uint _amount) public endTimer() count() returns (bool sufficient){\n//         if (balances[msg.sender] < _amount) return false;\n//         balances[msg.sender] -= _amount;\n//         balances[_addr] += _amount;\n//         counter += 1;\n//         emit Transfer(msg.sender, _addr, _amount);\n//         return true;\n//     }\n\n\n//     // mapping (address => uint) balances;\n\n//     // constructor() public {\n//     //     balances[msg.sender] = 10000;\n//     // }\n\n//     // function transferToOrganizer(address receiver, uint amount) public returns(bool sufficient) {\n//     //     if (balances[msg.sender] < amount) return false;\n//     //     balances[msg.sender] -= amount;\n//     //     balances[receiver] += amount;\n//     //     emit Transfer(msg.sender, receiver, amount);\n//     //     return true;\n//     // }\n\n//     // function getBalanceInEth(address addr) public view returns(uint) {\n//     //     return ConvertLib.convert(getBalance(addr),2);\n//     // }\n\n//     // function getBalance(address addr) public view returns(uint) {\n//     //     return balances[addr];\n//     // }\n// }",
  "sourcePath": "/Applications/XAMPP/xamppfiles/htdocs/Eticket36/contracts/Eticket.sol",
  "compiler": {
    "name": "solc",
    "version": "0.5.1+commit.c8a2cb62.Emscripten.clang"
  },
  "schemaVersion": "3.0.2",
  "updatedAt": "2019-03-24T04:45:25.744Z",
  "devdoc": {
    "methods": {}
  },
  "userdoc": {
    "methods": {}
  }
}