{
  "contractName": "Resale",
  "abi": [
    {
      "inputs": [],
      "payable": false,
      "stateMutability": "nonpayable",
      "type": "constructor",
      "signature": "constructor"
    },
    {
      "constant": false,
      "inputs": [
        {
          "name": "_seller",
          "type": "address"
        }
      ],
      "name": "setSeller",
      "outputs": [],
      "payable": false,
      "stateMutability": "nonpayable",
      "type": "function",
      "signature": "0xe99d2866"
    },
    {
      "constant": false,
      "inputs": [
        {
          "name": "_platform",
          "type": "address"
        }
      ],
      "name": "setPlatform",
      "outputs": [],
      "payable": false,
      "stateMutability": "nonpayable",
      "type": "function",
      "signature": "0x6945c5ea"
    },
    {
      "constant": false,
      "inputs": [
        {
          "name": "_originalPrice",
          "type": "uint256"
        }
      ],
      "name": "setAmount",
      "outputs": [],
      "payable": false,
      "stateMutability": "nonpayable",
      "type": "function",
      "signature": "0x271f88b4"
    },
    {
      "constant": false,
      "inputs": [],
      "name": "transfer",
      "outputs": [],
      "payable": true,
      "stateMutability": "payable",
      "type": "function",
      "signature": "0x8a4068dd"
    }
  ],
  "bytecode": "0x608060405234801561001057600080fd5b5033600160006101000a81548173ffffffffffffffffffffffffffffffffffffffff021916908373ffffffffffffffffffffffffffffffffffffffff1602179055506103e5806100616000396000f3fe60806040526004361061005c576000357c010000000000000000000000000000000000000000000000000000000090048063271f88b4146100615780636945c5ea1461009c5780638a4068dd146100ed578063e99d2866146100f7575b600080fd5b34801561006d57600080fd5b5061009a6004803603602081101561008457600080fd5b8101908080359060200190929190505050610148565b005b3480156100a857600080fd5b506100eb600480360360208110156100bf57600080fd5b81019080803573ffffffffffffffffffffffffffffffffffffffff16906020019092919050505061015c565b005b6100f56101a0565b005b34801561010357600080fd5b506101466004803603602081101561011a57600080fd5b81019080803573ffffffffffffffffffffffffffffffffffffffff169060200190929190505050610376565b005b80670de0b6b3a76400000260038190555050565b80600260006101000a81548173ffffffffffffffffffffffffffffffffffffffff021916908373ffffffffffffffffffffffffffffffffffffffff16021790555050565b600160009054906101000a900473ffffffffffffffffffffffffffffffffffffffff1673ffffffffffffffffffffffffffffffffffffffff163373ffffffffffffffffffffffffffffffffffffffff1614801561020d5750600a600b6003540281151561020957fe5b0434145b1515610281576040517f08c379a00000000000000000000000000000000000000000000000000000000081526004018080602001828103825260128152602001807fe98791e9a18de587bae5958fe9a18c2e2e2e000000000000000000000000000081525060200191505060405180910390fd5b6000809054906101000a900473ffffffffffffffffffffffffffffffffffffffff1673ffffffffffffffffffffffffffffffffffffffff166108fc600a6009600354028115156102cd57fe5b049081150290604051600060405180830381858888f193505050501580156102f9573d6000803e3d6000fd5b50600260009054906101000a900473ffffffffffffffffffffffffffffffffffffffff1673ffffffffffffffffffffffffffffffffffffffff166108fc600a60026003540281151561034757fe5b049081150290604051600060405180830381858888f19350505050158015610373573d6000803e3d6000fd5b50565b806000806101000a81548173ffffffffffffffffffffffffffffffffffffffff021916908373ffffffffffffffffffffffffffffffffffffffff1602179055505056fea165627a7a72305820f16320070a766f4e5921c3e8beaf9eaf1fa27e90042cb913b8ff9b8b6e2ab7de0029",
  "source": "pragma solidity >=0.4.21 <0.6.0;\n\ncontract Resale {\n    \n    address payable seller;\n    address payable buyer;\n    address payable platform;\n    uint originalPrice;\n\n    constructor() public {\n        buyer = msg.sender;\n    }\n\n    // 轉售方地址\n    function setSeller(address payable _seller) public {\n        seller = _seller;\n    }\n\n    // 售票平台地址（之後為定數）\n    function setPlatform(address payable _platform) public {\n        platform = _platform;\n    }\n\n    // 設定原票價金額\n    function setAmount(uint _originalPrice) public {\n        originalPrice = 1 ether * _originalPrice;\n    }\n\n    // 確定買票方多付10%的手續費\n    modifier comfirm() {\n        require(msg.sender == buyer && msg.value == originalPrice * 11 / 10, \"金額出問題...\");\n        _;\n    }\n\n    // 轉帳；買家得到原票價的90％，平台得到中間的手續費\n    function transfer() public payable comfirm() {\n        seller.transfer(originalPrice * 9 / 10);\n        platform.transfer(originalPrice * 2 / 10);\n    }\n}\n\n// console script\n\n// let instance = await Resale.deployed()\n// let accounts = await web3.eth.getAccounts()\n// instance.setSeller(accounts[6])\n// instance.setPlatform(accounts[3])\n// instance.setAmount(30)\n// instance.transfer({from: accounts[0], value: web3.utils.toWei('33', 'ether')})",
  "sourcePath": "/Applications/XAMPP/xamppfiles/htdocs/Eticket36/contracts/Resale.sol",
  "compiler": {
    "name": "solc",
    "version": "0.5.1+commit.c8a2cb62.Emscripten.clang"
  },
  "schemaVersion": "3.0.2",
  "updatedAt": "2019-03-24T04:45:25.731Z",
  "devdoc": {
    "methods": {}
  },
  "userdoc": {
    "methods": {}
  }
}