{
  "contractName": "Resale",
  "abi": [
    {
      "constant": true,
      "inputs": [],
      "name": "platform",
      "outputs": [
        {
          "name": "",
          "type": "address"
        }
      ],
      "payable": false,
      "stateMutability": "view",
      "type": "function",
      "signature": "0x4bde38c8"
    },
    {
      "inputs": [],
      "payable": false,
      "stateMutability": "nonpayable",
      "type": "constructor",
      "signature": "constructor"
    },
    {
      "constant": false,
      "inputs": [
        {
          "name": "_seller",
          "type": "address"
        }
      ],
      "name": "setSeller",
      "outputs": [],
      "payable": false,
      "stateMutability": "nonpayable",
      "type": "function",
      "signature": "0xe99d2866"
    },
    {
      "constant": false,
      "inputs": [
        {
          "name": "_originalPrice",
          "type": "uint256"
        }
      ],
      "name": "setAmount",
      "outputs": [],
      "payable": false,
      "stateMutability": "nonpayable",
      "type": "function",
      "signature": "0x271f88b4"
    },
    {
      "constant": false,
      "inputs": [],
      "name": "transfer",
      "outputs": [],
      "payable": true,
      "stateMutability": "payable",
      "type": "function",
      "signature": "0x8a4068dd"
    }
  ],
  "bytecode": "0x6080604052734190c332e7d40bf2e7a370bbc836f5b8832cb326600260006101000a81548173ffffffffffffffffffffffffffffffffffffffff021916908373ffffffffffffffffffffffffffffffffffffffff16021790555034801561006557600080fd5b5033600160006101000a81548173ffffffffffffffffffffffffffffffffffffffff021916908373ffffffffffffffffffffffffffffffffffffffff160217905550610263806100b66000396000f3fe60806040526004361061005c576000357c010000000000000000000000000000000000000000000000000000000090048063271f88b4146100615780634bde38c81461009c5780638a4068dd146100f3578063e99d2866146100fd575b600080fd5b34801561006d57600080fd5b5061009a6004803603602081101561008457600080fd5b810190808035906020019092919050505061014e565b005b3480156100a857600080fd5b506100b1610162565b604051808273ffffffffffffffffffffffffffffffffffffffff1673ffffffffffffffffffffffffffffffffffffffff16815260200191505060405180910390f35b6100fb610188565b005b34801561010957600080fd5b5061014c6004803603602081101561012057600080fd5b81019080803573ffffffffffffffffffffffffffffffffffffffff1690602001909291905050506101f4565b005b80670de0b6b3a76400000260038190555050565b600260009054906101000a900473ffffffffffffffffffffffffffffffffffffffff1681565b6000809054906101000a900473ffffffffffffffffffffffffffffffffffffffff1673ffffffffffffffffffffffffffffffffffffffff166108fc6003549081150290604051600060405180830381858888f193505050501580156101f1573d6000803e3d6000fd5b50565b806000806101000a81548173ffffffffffffffffffffffffffffffffffffffff021916908373ffffffffffffffffffffffffffffffffffffffff1602179055505056fea165627a7a723058204ca716ffa8dffa87a47abe6a854533f0f4c80b10f2da757ac4ac66e1d8bc94b60029",
  "source": "pragma solidity >=0.4.21 <0.6.0;\n\ncontract Resale {\n    \n    address payable seller;\n    address payable buyer;\n    address payable public platform = 0x4190C332e7D40bF2E7A370Bbc836F5b8832CB326;\n    uint originalPrice;\n\n    constructor() public {\n        buyer = msg.sender;\n    }\n\n    // 轉售方地址\n    function setSeller(address payable _seller) public {\n        seller = _seller;\n    }\n\n    // 售票平台地址（之後為定數）\n    // function setPlatform(address payable _platform) public {\n    //     platform = _platform;\n    // }\n\n    // 設定原票價金額\n    function setAmount(uint _originalPrice) public {\n        originalPrice = 1 ether * _originalPrice;\n    }\n\n    // 確定買票方多付10%的手續費\n    modifier comfirm() {\n        require(msg.sender == buyer && msg.value == originalPrice * 105 / 100, \"金額出問題...\");\n        _;\n    }\n\n    // 轉帳；買家得到原票價的90％，平台得到中間的手續費\n    function transfer() public payable {\n        // require(msg.sender == buyer);\n        // require(msg.value == originalPrice * 105 / 100);\n        seller.transfer(originalPrice);\n        // platform.transfer(originalPrice);\n    }\n}\n\n// console script\n\n// let instance = await Resale.deployed()\n// let accounts = await web3.eth.getAccounts()\n// instance.setSeller(accounts[6])\n// instance.setPlatform(accounts[3])\n// instance.setAmount(30)\n// instance.transfer({from: accounts[0], value: web3.utils.toWei('33', 'ether')})",
  "sourcePath": "/Applications/XAMPP/xamppfiles/htdocs/Eticket36/contracts/Resale.sol",
  "compiler": {
    "name": "solc",
    "version": "0.5.1+commit.c8a2cb62.Emscripten.clang"
  },
  "schemaVersion": "3.0.2",
  "updatedAt": "2019-04-24T07:22:51.093Z",
  "devdoc": {
    "methods": {}
  },
  "userdoc": {
    "methods": {}
  }
}